:100000000C942A000C9476030C94B4030C944700CF
:100010000C9447000C94D4020C9447000C944700B5
:100020000C9447000C9447000C9447000C94BD02BC
:100030000C9447000C9424030C9447000C94470044
:100040000C9447000C9447000C9447000C94470014
:100050000C94470011241FBECFE5D8E0DEBFCDBF12
:1000600010E0A0E6B0E0EAEFF1E102C005900D92E9
:10007000A03FB107D9F721E0A0EFB0E001C01D9289
:10008000AE31B207E1F70E94AF040C94FB080C9468
:100090000000672B09F09FC0009711F4D8980895CD
:1000A0008130910511F4D99808958230910511F4A9
:1000B000DA9808958330910511F4DB98089584301F
:1000C000910511F4DC9808958530910511F4DD98BF
:1000D00008958630910511F4DE98089587309105D2
:1000E00011F4DF9808958A30910511F4C0980895AD
:1000F0008B30910511F4C19808958C30910511F45D
:10010000C29808958D30910511F4C39808958E30EA
:10011000910511F4C49808958F30910511F4C59894
:1001200008958031910511F4C698089581319105A3
:1001300011F4C79808958431910511F4A898089591
:100140008531910511F4A99808958631910511F42E
:10015000AA9808958731910511F4AB9808958831D4
:10016000910511F4AC9808958931910511F4AD9879
:1001700008958A31910511F4AE9808958B31910557
:1001800011F4AF9808958E31910511F49098089567
:100190008F31910511F4919808958032910511F4F1
:1001A000929808958132910511F4939808958232BE
:1001B000910511F4949808958332910511F495985E
:1001C00008958432910511F496980895859709F061
:1001D0009FC097980895009711F4D89A0895813098
:1001E000910511F4D99A08958230910511F4DA9AA3
:1001F00008958330910511F4DB9A089584309105B8
:1002000011F4DC9A08958530910511F4DD9A089572
:100210008630910511F4DE9A08958730910511F426
:10022000DF9A08958A30910511F4C09A08958B30B1
:10023000910511F4C19A08958C30910511F4C29A78
:1002400008958D30910511F4C39A08958E3091056B
:1002500011F4C49A08958F30910511F4C59A089548
:100260008031910511F4C69A08958131910511F4F8
:10027000C79A08958431910511F4A89A089585319B
:10028000910511F4A99A08958631910511F4AA9A5D
:1002900008958731910511F4AB9A0895883191053D
:1002A00011F4AC9A08958931910511F4AD9A08952D
:1002B0008A31910511F4AE9A08958B31910511F4AC
:1002C000AF9A08958E31910511F4909A08958F3167
:1002D000910511F4919A08958032910511F4929A42
:1002E00008958132910511F4939A0895823291050F
:1002F00011F4949A08958332910511F4959A089512
:100300008432910511F4969A0895859709F4979A85
:100310000895CF93C82F80FF07C061E070E08AE0A6
:1003200090E00E94490006C060E070E08AE090E042
:100330000E944900C1FF07C061E070E08BE090E0DF
:100340000E94490006C060E070E08BE090E00E94EF
:100350004900C2FF07C061E070E08CE090E00E94BD
:10036000490006C060E070E08CE090E00E94490027
:10037000C3FF07C061E070E08DE090E00E9449009B
:1003800006C060E070E08DE090E00E944900CF91EF
:100390000895CF93C82F60E070E08AE190E00E945A
:1003A00049008C2F0E94890161E070E08BE190E0B0
:1003B0000E94490089EF90E00197F1F700C000002A
:1003C00060E070E08BE190E00E94490089EF90E0EE
:1003D0000197F1F700C00000CF910895CF93C62F89
:1003E000813059F480E8860F82958F700E94C90190
:1003F0008C2F8F700E94C9010CC0823051F480ECA8
:10040000860F82958F700E94C9018C2F8F700E9479
:10041000C901CF91089580E00E94890187E893E1A6
:100420000197F1F700C0000083E00E94C90181EE4E
:1004300094E00197F1F700C0000083E00E94C90139
:100440008DEB9AE00197F1F700C0000083E00E9475
:10045000C90182E00E94C90182E00E94C90188E0CE
:100460000E94C90180E00E94C9018CE00E94C9017C
:1004700080E00E94C90186E00E94C9010895CF93DF
:10048000C82F61E070E08AE190E00E9449008C2F63
:1004900082958F700E94890161E070E08BE190E0AD
:1004A0000E94490089EF90E00197F1F700C0000039
:1004B00060E070E08BE190E00E94490089EF90E0FD
:1004C0000197F1F700C000008C2F8F700E94890106
:1004D00061E070E08BE190E00E94490089EF90E0DC
:1004E0000197F1F700C0000060E070E08BE190E060
:1004F0000E94490089EF90E00197F1F700C00000E9
:10050000CF910895CF93DF93EC018881882331F058
:1005100021960E943F0289918111FBCFDF91CF91FB
:10052000089560E082E00E94EE018CE091E00E947C
:10053000820208959091F5008091F6001F929F939A
:100540001F928F9382E690E09F938F938BEF90E0C2
:100550009F938F930E94110660E081E00E94EE015C
:100560008BEF90E00E9482028DB79EB708960FB67F
:10057000F8949EBF0FBE8DBF08951F920F920FB6C5
:100580000F9211248F939F938091F3009091F40028
:1005900001969093F4008093F3009F918F910F90B8
:1005A0000FBE0F901F9018951F920F920FB60F92CB
:1005B00011248F939F938091F1009091F200019606
:1005C0009093F2008093F1009F918F910F900FBE56
:1005D0000F901F9018958A988BB780648BBF85B752
:1005E000836085BF08958B988BB780688BBF85B774
:1005F0008C6085BF089582E08BB988ED8AB986E862
:1006000080BD10BC8CE089B908955D9BFECF8CB98C
:1006100008958D9A1DBC1CBC83EC99E097BD86BDE6
:100620008FB582688FBD8EB58A618EBD08959F9308
:100630008F938CE091E09F938F930E9411060F900F
:100640000F900F900F9008951F920F920FB60F9278
:1006500011242F933F934F935F936F937F938F93C7
:100660009F93AF93BF93EF93FF938CB180930B0154
:1006700080910B01803F49F59091610088B3892BEF
:1006800088BB80916100803871F481E08BBB2CE2E3
:1006900031E03BBD2ABD8093F70085E790E00E94E2
:1006A00017031BBA12C080916100803C71F48CE288
:1006B00091E09BBD8ABD81E08093F70086E890E0E1
:1006C0000E9417038FEF80936000FF91EF91BF911D
:1006D000AF919F918F917F916F915F914F913F91DA
:1006E0002F910F900FBE0F901F9018951F920F9291
:1006F0000FB60F9211242F933F934F935F936F93F5
:100700007F938F939F93AF93BF93EF93FF938091CA
:10071000F700882389F084EB90E09BBD8ABD10929E
:10072000F70087E990E00E94170380EF8093610053
:100730008FEF8093600007C087E990E00E94170365
:1007400080E880936100FF91EF91BF91AF919F91FD
:100750008F917F916F915F914F913F912F910F906A
:100760000FBE0F901F9018951F920F920FB60F9209
:1007700011242F933F934F935F936F937F938F93A6
:100780009F93AF93BF93EF93FF938091F7008111F5
:1007900036C0809160008F3F09F43FC088EA90E046
:1007A0000E9417032FE986E891E021508040904095
:1007B000E1F700C000001F9285E58F9389EB90E080
:1007C0009F938F938CE091E09F938F930E941106EB
:1007D00080EB0E9405038091F0000E940503809148
:1007E000F0008BBB8FEF8093600080EC8093610002
:1007F0000F900F900F900F900F900F900EC084EB02
:1008000090E09BBD8ABD1092F7008CEC90E00E94B6
:10081000170380EF809361001BBAFF91EF91BF91A6
:10082000AF919F918F917F916F915F914F913F9188
:100830002F910F900FBE0F901F9018958091F3008D
:100840009091F400892B51F483B7846083BF89B7FA
:10085000816089BF8091F8008093F90008958091AC
:10086000F3009091F400892B81F113BE12BE6091C8
:10087000F3007091F40080E090E00E94160528EBF0
:100880003EE145E85DE30E947C050E94E704609339
:100890001C011092F4001092F3001092600060931B
:1008A000F0008091F0001F928F938DED90E09F9368
:1008B0008F938CE091E09F938F930E9411060F908D
:1008C0000F900F900F900F900F9008958091F1006E
:1008D0009091F200892B51F485B5866085BD89B76A
:1008E000806489BF8091F8008093FA000895809118
:1008F000F1009091F200892B89F115BC15BC609133
:10090000F1007091F20080E090E00E94160528EB63
:100910003EE145E85DE30E947C050E94E7046093A8
:100920001D011092F2001092F10081E080936000AE
:100930006093F0008091F0001F928F938DED90E016
:100940009F938F938CE091E09F938F930E94110669
:100950000F900F900F900F900F900F90089580E8D8
:1009600084BF84BF8FEF87BB84BB8ABB84B3877C83
:1009700084BB0E940B020E94FB020E9409030E949A
:10098000EB020E94F30289B7816089BF8CEC90E092
:100990000E9417037894C1E00E9491020E949A027B
:1009A0009D9B05C01092F6000E942F0404C0C093C6
:1009B000F6000E941E049C9B05C01092F5000E9448
:1009C0007704EACFC093F5000E946604E5CF0E9449
:1009D0005B0588F09F5798F0B92F9927B751B0F071
:1009E000E1F0660F771F881F991F1AF0BA95C9F7B3
:1009F00014C0B13091F00E947505B1E008950C94D7
:100A00007505672F782F8827B85F39F0B93FCCF389
:100A1000869577956795B395D9F73EF4909580952F
:100A2000709561957F4F8F4F9F4F0895E89409C04F
:100A300097FB3EF490958095709561957F4F8F4F11
:100A40009F4F9923A9F0F92F96E9BB279395F69527
:100A5000879577956795B795F111F8CFFAF4BB0FA5
:100A600011F460FF1BC06F5F7F4F8F4F9F4F16C009
:100A7000882311F096E911C0772321F09EE8872F93
:100A8000762F05C0662371F096E8862F70E060E04F
:100A90002AF09A95660F771F881FDAF7880F9695C8
:100AA000879597F9089557FD9058440F551F59F0B1
:100AB0005F3F71F04795880F97FB991F61F09F3F4B
:100AC00079F087950895121613061406551FF2CF74
:100AD0004695F1DF08C0161617061806991FF1CFC4
:100AE00086957105610508940895E894BB276627EB
:100AF0007727CB0197F908950E948F050C94000683
:100B00000E94F20538F00E94F90520F0952311F0BB
:100B10000C94E9050C94EF0511240C9476050E94C1
:100B2000530570F3959FC1F3950F50E0551F629FD9
:100B3000F001729FBB27F00DB11D639FAA27F00D36
:100B4000B11DAA1F649F6627B00DA11D661F829F5D
:100B50002227B00DA11D621F739FB00DA11D621F42
:100B6000839FA00D611D221F749F3327A00D611D5F
:100B7000231F849F600D211D822F762F6A2F112441
:100B80009F5750409AF0F1F088234AF0EE0FFF1F74
:100B9000BB1F661F771F881F91505040A9F79E3FCB
:100BA000510580F00C94E9050C9476055F3FE4F361
:100BB000983ED4F3869577956795B795F795E79521
:100BC0009F5FC1F7FE2B880F911D9695879597F92A
:100BD000089597F99F6780E870E060E008959FEFBF
:100BE00080EC089500240A941616170618060906C4
:100BF000089500240A941216130614060506089593
:100C0000092E0394000C11F4882352F0BB0F40F41A
:100C1000BF2B11F460FF04C06F5F7F4F8F4F9F4F5A
:100C20000895AEE0B0E0E7E1F6E00C94D2080D895B
:100C30001E8986E08C831A8309838FEF9FE79E834A
:100C40008D83AE01475E5F4F6F89788DCE0101962F
:100C50000E943306EF81F885E00FF11F10822E9677
:100C6000E4E00C94EE08ABE0B0E0E9E3F6E00C94CD
:100C7000C4086C017B018A01FC0117821682838102
:100C800081FFCCC1CE0101963C01F6019381F701B1
:100C900093FD859193FF81917F01882309F4BAC167
:100CA000853239F493FD859193FF81917F018532DF
:100CB00029F4B60190E00E942A08E7CF912C212C5C
:100CC000312CFFE1F315D8F08B3279F038F4803213
:100CD00079F08332A1F4232D20611DC08D3261F0A3
:100CE000803369F4232D216016C0832D8260382E55
:100CF000E32DE4603E2E2AC0F32DF8601DC037FCC2
:100D00002DC020ED280F2A3040F08E32B9F436FC89
:100D100081C1232D2064322E19C036FE06C08AE020
:100D2000989E200D1124922E11C0EAE02E9E200DD7
:100D30001124222EF32DF0623F2E08C08C3621F4B0
:100D4000832D8068382E02C0883641F4F70193FD68
:100D5000859193FF81917F018111B3CF982F9F7D62
:100D60009554933028F40C5F1F4F9FE399830DC077
:100D7000833631F0833771F0833509F059C021C0D3
:100D8000F801808189830E5F1F4F88248394912C02
:100D9000530113C02801F2E04F0E511CF801A0804E
:100DA000B18036FE03C0692D70E002C06FEF7FEFA7
:100DB000C5010E941F084C018201F32DFF773F2ED1
:100DC00016C0280122E0420E511CF801A080B1801B
:100DD00036FE03C0692D70E002C06FEF7FEFC501E2
:100DE0000E9414084C01F32DF0683F2E820133FC61
:100DF0001BC0822D90E088169906B0F4B60180E2FF
:100E000090E00E942A082A94F4CFF50137FC8591DE
:100E100037FE81915F01B60190E00E942A082110FF
:100E20002A9421E0821A91088114910471F7E8C094
:100E3000843611F0893641F5F80137FE07C060812C
:100E40007181828193810C5F1F4F08C06081718125
:100E5000072E000C880B990B0E5F1F4FF32DFF76AA
:100E60003F2E97FF09C090958095709561957F4FB3
:100E70008F4F9F4FF0683F2E2AE030E0A3010E9481
:100E80006608882E861845C0853731F4232D2F7EBD
:100E9000B22E2AE030E025C0932D997FB92E8F36EF
:100EA000C1F018F4883579F0B5C0803719F088376B
:100EB00021F0B0C0E92FE061BE2EB4FE0DC0FB2DC5
:100EC000F460BF2E09C034FE0AC0292F2660B22E5E
:100ED00006C028E030E005C020E130E002C020E19B
:100EE00032E0F801B7FE07C0608171818281938191
:100EF0000C5F1F4F06C06081718180E090E00E5F43
:100F00001F4FA3010E946608882E8618FB2DFF77CD
:100F10003F2E36FE0DC0232D2E7FA22E891458F4AD
:100F200034FE0BC032FC09C0832D8E7EA82E05C076
:100F3000B82CA32C03C0B82C01C0B92CA4FE0FC040
:100F4000FE01E80DF11D8081803321F49A2D997EF8
:100F5000A92E09C0A2FE06C0B394B39404C08A2D82
:100F6000867809F0B394A3FC11C0A0FE06C0B214A9
:100F700088F4280C922C9B180EC0B21460F4B601B1
:100F800080E290E00E942A08B394F7CFB21418F4DC
:100F90002B1802C0982C212CA4FE10C0B60180E3AF
:100FA00090E00E942A08A2FE17C0A1FC03C088E7B7
:100FB00090E002C088E590E0B6010CC08A2D8678EA
:100FC00059F0A1FE02C08BE201C080E2A7FC8DE2D5
:100FD000B60190E00E942A08891438F4B60180E333
:100FE00090E00E942A089A94F7CF8A94F301E80DC2
:100FF000F11D8081B60190E00E942A088110F5CF92
:10100000222009F442CEB60180E290E00E942A0834
:101010002A94F6CFF6018681978102C08FEF9FEF69
:101020002B96E2E10C94E008FC01059061507040C1
:101030000110D8F7809590958E0F9F1F0895FC01A1
:101040006150704001900110D8F7809590958E0FF7
:101050009F1F08950F931F93CF93DF93FB0123816D
:1010600021FD03C08FEF9FEF2CC022FF16C04681E9
:101070005781248135814217530744F4A081B181FF
:101080009D012F5F3F4F318320838C9326813781D1
:101090002F5F3F4F3783268314C08B01EC01FB0188
:1010A0000084F185E02D0995892BE1F6D80116968B
:1010B0008D919C911797019617969C938E931697F6
:1010C000CE01DF91CF911F910F910895FA01AA27C8
:1010D000283051F1203181F1E8946F936E7F6E5F7B
:1010E0007F4F8F4F9F4FAF4FB1E03ED0B4E03CD029
:1010F000670F781F891F9A1FA11D680F791F8A1F0C
:10110000911DA11D6A0F711D811D911DA11D20D072
:1011100009F468943F912AE0269F11243019305D2C
:101120003193DEF6CF010895462F4770405D41931D
:10113000B3E00FD0C9F7F6CF462F4F70405D4A336A
:1011400018F0495D31FD4052419302D0A9F7EACF32
:10115000B4E0A6959795879577956795BA95C9F761
:1011600000976105710508959B01AC010A2E069454
:101170005795479537952795BA95C9F7620F731F0D
:10118000841F951FA01D08952F923F924F925F924A
:101190006F927F928F929F92AF92BF92CF92DF9287
:1011A000EF92FF920F931F93CF93DF93CDB7DEB7EC
:1011B000CA1BDB0B0FB6F894DEBF0FBECDBF099480
:1011C0002A88398848885F846E847D848C849B84D7
:1011D000AA84B984C884DF80EE80FD800C811B81E5
:1011E000AA81B981CE0FD11D0FB6F894DEBF0FBE14
:0A11F000CDBFED010895F894FFCF84
:1011FA00FFF0736C6F74313A256420736C6F74322C
:10120A003A2564200057454C434F4D452020202065
:10121A00202020202000474F4F44204259452020BB
:10122A0020202020202000535749504520594F554F
:10123A00522043415244200070726563657373699A
:10124A006E672062696C6C20005041592042494CFB
:10125A004C3A202564202420202020004449474974
:10126A0054414C205041524B494E47200042494C70
:10127A004C3A202564202020202020202020000015
:00000001FF
