:100000000C942A000C943C000C943C000C943C0092
:100010000C943C000C943C000C943C000C943C0070
:100020000C943C000C943C000C943C000C943C0060
:100030000C943C000C944C000C943C000C943C0040
:100040000C943C000C943C000C943C000C943C0040
:100050000C943C0011241FBECFE5D8E0DEBFCDBF1D
:1000600020E0A0E6B0E001C01D92A136B207E1F7A2
:100070000E9475000C9479000C94000082E08BB90A
:1000800088ED8AB986E880BD10BC8CE089B90895F6
:100090005D9BFECF8CB908951F920F920FB60F9201
:1000A00011242F933F934F935F936F937F938F937D
:1000B0009F93AF93BF93EF93FF938CB180936000B6
:1000C000809160000E944800FF91EF91BF91AF9135
:1000D0009F918F917F916F915F914F913F912F9160
:1000E0000F900FBE0F901F9018950E943E007894BD
:0600F000FFCFF894FFCFE2
:00000001FF
