:100000000C942A000C9434000C9434000C943400AA
:100010000C9434000C9434000C9434000C94340090
:100020000C9434000C9434000C9434000C94340080
:100030000C9434000C9434000C9434000C94340070
:100040000C9434000C9434000C9434000C94340060
:100050000C94340011241FBECFE5D8E0DEBFCDBF25
:100060000E9444000C9456000C94000082E08BB96E
:1000700088E18AB986E880BD10BC8CE089B9089512
:100080005D9BFECF8CB908958FEF87BB18BA0E9495
:1000900036002FE382E49FE0215080409040E1F75A
:1000A00000C0000089E50E944000FCCFF894FFCF1B
:00000001FF
